{
  "_format": "hh-sol-artifact-1",
  "contractName": "Factory",
  "sourceName": "contracts/Lock.sol",
  "abi": [
    {
      "inputs": [
        {
          "internalType": "uint256",
          "name": "",
          "type": "uint256"
        }
      ],
      "name": "campaigns",
      "outputs": [
        {
          "internalType": "contract Campaign_contract",
          "name": "",
          "type": "address"
        }
      ],
      "stateMutability": "view",
      "type": "function"
    },
    {
      "inputs": [
        {
          "internalType": "uint256",
          "name": "minimum",
          "type": "uint256"
        }
      ],
      "name": "createCampaign",
      "outputs": [],
      "stateMutability": "nonpayable",
      "type": "function"
    },
    {
      "inputs": [],
      "name": "getCampaigns",
      "outputs": [
        {
          "internalType": "contract Campaign_contract[]",
          "name": "",
          "type": "address[]"
        }
      ],
      "stateMutability": "view",
      "type": "function"
    }
  ],
  "bytecode": "0x608060405234801561001057600080fd5b506116a1806100206000396000f3fe608060405234801561001057600080fd5b50600436106100415760003560e01c8063141961bc14610046578063a3303a7514610076578063a6b0363314610092575b600080fd5b610060600480360381019061005b9190610266565b6100b0565b60405161006d9190610312565b60405180910390f35b610090600480360381019061008b9190610266565b6100ef565b005b61009a610190565b6040516100a791906103eb565b60405180910390f35b600081815481106100c057600080fd5b906000526020600020016000915054906101000a900473ffffffffffffffffffffffffffffffffffffffff1681565b600081336040516100ff9061021e565b61010a92919061043d565b604051809103906000f080158015610126573d6000803e3d6000fd5b5090506000819080600181540180825580915050600190039060005260206000200160009091909190916101000a81548173ffffffffffffffffffffffffffffffffffffffff021916908373ffffffffffffffffffffffffffffffffffffffff1602179055505050565b6060600080548060200260200160405190810160405280929190818152602001828054801561021457602002820191906000526020600020905b8160009054906101000a900473ffffffffffffffffffffffffffffffffffffffff1673ffffffffffffffffffffffffffffffffffffffff16815260200190600101908083116101ca575b5050505050905090565b6112058061046783390190565b600080fd5b6000819050919050565b61024381610230565b811461024e57600080fd5b50565b6000813590506102608161023a565b92915050565b60006020828403121561027c5761027b61022b565b5b600061028a84828501610251565b91505092915050565b600073ffffffffffffffffffffffffffffffffffffffff82169050919050565b6000819050919050565b60006102d86102d36102ce84610293565b6102b3565b610293565b9050919050565b60006102ea826102bd565b9050919050565b60006102fc826102df565b9050919050565b61030c816102f1565b82525050565b60006020820190506103276000830184610303565b92915050565b600081519050919050565b600082825260208201905092915050565b6000819050602082019050919050565b610362816102f1565b82525050565b60006103748383610359565b60208301905092915050565b6000602082019050919050565b60006103988261032d565b6103a28185610338565b93506103ad83610349565b8060005b838110156103de5781516103c58882610368565b97506103d083610380565b9250506001810190506103b1565b5085935050505092915050565b60006020820190508181036000830152610405818461038d565b905092915050565b61041681610230565b82525050565b600061042782610293565b9050919050565b6104378161041c565b82525050565b6000604082019050610452600083018561040d565b61045f602083018461042e565b939250505056fe60806040523480156200001157600080fd5b50604051620012053803806200120583398181016040528101906200003791906200012c565b80600260006101000a81548173ffffffffffffffffffffffffffffffffffffffff021916908373ffffffffffffffffffffffffffffffffffffffff16021790555081600381905550505062000173565b600080fd5b6000819050919050565b620000a1816200008c565b8114620000ad57600080fd5b50565b600081519050620000c18162000096565b92915050565b600073ffffffffffffffffffffffffffffffffffffffff82169050919050565b6000620000f482620000c7565b9050919050565b6200010681620000e7565b81146200011257600080fd5b50565b6000815190506200012681620000fb565b92915050565b6000806040838503121562000146576200014562000087565b5b60006200015685828601620000b0565b9250506020620001698582860162000115565b9150509250929050565b61108280620001836000396000f3fe60806040526004361061009c5760003560e01c806381d12c581161006457806381d12c581461018c57806382fde093146101cd5780638a9cfd55146101f8578063937e09b114610221578063d7bb99ba1461024c578063d7d1bbdb146102565761009c565b806303441006146100a15780630a144391146100ca5780633410452a146101075780634051ddac14610132578063481c6a7514610161575b600080fd5b3480156100ad57600080fd5b506100c860048036038101906100c391906108b1565b61027f565b005b3480156100d657600080fd5b506100f160048036038101906100ec919061093c565b6103ba565b6040516100fe9190610984565b60405180910390f35b34801561011357600080fd5b5061011c6103da565b60405161012991906109ae565b60405180910390f35b34801561013e57600080fd5b506101476103e3565b6040516101589594939291906109d8565b60405180910390f35b34801561016d57600080fd5b50610176610429565b6040516101839190610a2b565b60405180910390f35b34801561019857600080fd5b506101b360048036038101906101ae91906108b1565b61044f565b6040516101c4959493929190610b00565b60405180910390f35b3480156101d957600080fd5b506101e261053a565b6040516101ef91906109ae565b60405180910390f35b34801561020457600080fd5b5061021f600480360381019061021a9190610beb565b610540565b005b34801561022d57600080fd5b506102366106ad565b60405161024391906109ae565b60405180910390f35b6102546106b3565b005b34801561026257600080fd5b5061027d600480360381019061027891906108b1565b610733565b005b600260009054906101000a900473ffffffffffffffffffffffffffffffffffffffff1673ffffffffffffffffffffffffffffffffffffffff163373ffffffffffffffffffffffffffffffffffffffff16146102d957600080fd5b600060016000838152602001908152602001600020905060026004546102ff9190610cbd565b81600301541161030e57600080fd5b8060020160149054906101000a900460ff161561032a57600080fd5b8060020160009054906101000a900473ffffffffffffffffffffffffffffffffffffffff1673ffffffffffffffffffffffffffffffffffffffff166108fc82600101549081150290604051600060405180830381858888f19350505050158015610398573d6000803e3d6000fd5b5060018160020160146101000a81548160ff0219169083151502179055505050565b60056020528060005260406000206000915054906101000a900460ff1681565b60008054905090565b600080600080600060035447600054600454600260009054906101000a900473ffffffffffffffffffffffffffffffffffffffff16945094509450945094509091929394565b600260009054906101000a900473ffffffffffffffffffffffffffffffffffffffff1681565b600160205280600052604060002060009150905080600001805461047290610d1d565b80601f016020809104026020016040519081016040528092919081815260200182805461049e90610d1d565b80156104eb5780601f106104c0576101008083540402835291602001916104eb565b820191906000526020600020905b8154815290600101906020018083116104ce57829003601f168201915b5050505050908060010154908060020160009054906101000a900473ffffffffffffffffffffffffffffffffffffffff16908060020160149054906101000a900460ff16908060030154905085565b60045481565b600260009054906101000a900473ffffffffffffffffffffffffffffffffffffffff1673ffffffffffffffffffffffffffffffffffffffff163373ffffffffffffffffffffffffffffffffffffffff161461059a57600080fd5b600560003373ffffffffffffffffffffffffffffffffffffffff1673ffffffffffffffffffffffffffffffffffffffff16815260200190815260200160002060009054906101000a900460ff166105f057600080fd5b600060016000805481526020019081526020016000209050848482600001918261061b929190610f34565b50828160010181905550818160020160006101000a81548173ffffffffffffffffffffffffffffffffffffffff021916908373ffffffffffffffffffffffffffffffffffffffff16021790555060008160020160146101000a81548160ff021916908315150217905550600081600301819055506000808154809291906106a190611004565b91905055505050505050565b60035481565b60035434116106c157600080fd5b6001600560003373ffffffffffffffffffffffffffffffffffffffff1673ffffffffffffffffffffffffffffffffffffffff16815260200190815260200160002060006101000a81548160ff0219169083151502179055506004600081548092919061072c90611004565b9190505550565b6000600160008381526020019081526020016000209050600560003373ffffffffffffffffffffffffffffffffffffffff1673ffffffffffffffffffffffffffffffffffffffff16815260200190815260200160002060009054906101000a900460ff166107a057600080fd5b8060040160003373ffffffffffffffffffffffffffffffffffffffff1673ffffffffffffffffffffffffffffffffffffffff16815260200190815260200160002060009054906101000a900460ff16156107f957600080fd5b60018160040160003373ffffffffffffffffffffffffffffffffffffffff1673ffffffffffffffffffffffffffffffffffffffff16815260200190815260200160002060006101000a81548160ff02191690831515021790555080600301600081548092919061086890611004565b91905055505050565b600080fd5b600080fd5b6000819050919050565b61088e8161087b565b811461089957600080fd5b50565b6000813590506108ab81610885565b92915050565b6000602082840312156108c7576108c6610871565b5b60006108d58482850161089c565b91505092915050565b600073ffffffffffffffffffffffffffffffffffffffff82169050919050565b6000610909826108de565b9050919050565b610919816108fe565b811461092457600080fd5b50565b60008135905061093681610910565b92915050565b60006020828403121561095257610951610871565b5b600061096084828501610927565b91505092915050565b60008115159050919050565b61097e81610969565b82525050565b60006020820190506109996000830184610975565b92915050565b6109a88161087b565b82525050565b60006020820190506109c3600083018461099f565b92915050565b6109d2816108fe565b82525050565b600060a0820190506109ed600083018861099f565b6109fa602083018761099f565b610a07604083018661099f565b610a14606083018561099f565b610a2160808301846109c9565b9695505050505050565b6000602082019050610a4060008301846109c9565b92915050565b600081519050919050565b600082825260208201905092915050565b60005b83811015610a80578082015181840152602081019050610a65565b83811115610a8f576000848401525b50505050565b6000601f19601f8301169050919050565b6000610ab182610a46565b610abb8185610a51565b9350610acb818560208601610a62565b610ad481610a95565b840191505092915050565b6000610aea826108de565b9050919050565b610afa81610adf565b82525050565b600060a0820190508181036000830152610b1a8188610aa6565b9050610b29602083018761099f565b610b366040830186610af1565b610b436060830185610975565b610b50608083018461099f565b9695505050505050565b600080fd5b600080fd5b600080fd5b60008083601f840112610b7f57610b7e610b5a565b5b8235905067ffffffffffffffff811115610b9c57610b9b610b5f565b5b602083019150836001820283011115610bb857610bb7610b64565b5b9250929050565b610bc881610adf565b8114610bd357600080fd5b50565b600081359050610be581610bbf565b92915050565b60008060008060608587031215610c0557610c04610871565b5b600085013567ffffffffffffffff811115610c2357610c22610876565b5b610c2f87828801610b69565b94509450506020610c428782880161089c565b9250506040610c5387828801610bd6565b91505092959194509250565b7f4e487b7100000000000000000000000000000000000000000000000000000000600052601260045260246000fd5b7f4e487b7100000000000000000000000000000000000000000000000000000000600052601160045260246000fd5b6000610cc88261087b565b9150610cd38361087b565b925082610ce357610ce2610c5f565b5b828204905092915050565b7f4e487b7100000000000000000000000000000000000000000000000000000000600052602260045260246000fd5b60006002820490506001821680610d3557607f821691505b602082108103610d4857610d47610cee565b5b50919050565b600082905092915050565b7f4e487b7100000000000000000000000000000000000000000000000000000000600052604160045260246000fd5b60008190508160005260206000209050919050565b60006020601f8301049050919050565b600082821b905092915050565b600060088302610dea7fffffffffffffffffffffffffffffffffffffffffffffffffffffffffffffffff82610dad565b610df48683610dad565b95508019841693508086168417925050509392505050565b6000819050919050565b6000610e31610e2c610e278461087b565b610e0c565b61087b565b9050919050565b6000819050919050565b610e4b83610e16565b610e5f610e5782610e38565b848454610dba565b825550505050565b600090565b610e74610e67565b610e7f818484610e42565b505050565b5b81811015610ea357610e98600082610e6c565b600181019050610e85565b5050565b601f821115610ee857610eb981610d88565b610ec284610d9d565b81016020851015610ed1578190505b610ee5610edd85610d9d565b830182610e84565b50505b505050565b600082821c905092915050565b6000610f0b60001984600802610eed565b1980831691505092915050565b6000610f248383610efa565b9150826002028217905092915050565b610f3e8383610d4e565b67ffffffffffffffff811115610f5757610f56610d59565b5b610f618254610d1d565b610f6c828285610ea7565b6000601f831160018114610f9b5760008415610f89578287013590505b610f938582610f18565b865550610ffb565b601f198416610fa986610d88565b60005b82811015610fd157848901358255600182019150602085019450602081019050610fac565b86831015610fee5784890135610fea601f891682610efa565b8355505b6001600288020188555050505b50505050505050565b600061100f8261087b565b91507fffffffffffffffffffffffffffffffffffffffffffffffffffffffffffffffff820361104157611040610c8e565b5b60018201905091905056fea2646970667358221220803d0e4ef1c08a0490e3b13fbbd4ca75ef7fabf15e4d480caa0c0c5965849cae64736f6c634300080f0033a2646970667358221220d9a78bcc0ac1dfb99c08d7f09e5e044e47806bfca021008230d5963f5e5e02ea64736f6c634300080f0033",
  "linkReferences": {},
  "deployedLinkReferences": {}
}